{
  "contractName": "VendingMachine",
  "abi": [
    {
      "inputs": [],
      "stateMutability": "nonpayable",
      "type": "constructor"
    },
    {
      "inputs": [
        {
          "internalType": "address",
          "name": "",
          "type": "address"
        }
      ],
      "name": "cokeBalance",
      "outputs": [
        {
          "internalType": "uint256",
          "name": "",
          "type": "uint256"
        }
      ],
      "stateMutability": "view",
      "type": "function",
      "constant": true
    },
    {
      "inputs": [],
      "name": "owner",
      "outputs": [
        {
          "internalType": "address",
          "name": "",
          "type": "address"
        }
      ],
      "stateMutability": "view",
      "type": "function",
      "constant": true
    },
    {
      "inputs": [
        {
          "internalType": "uint256",
          "name": "amount",
          "type": "uint256"
        }
      ],
      "name": "purchase",
      "outputs": [],
      "stateMutability": "payable",
      "type": "function",
      "payable": true
    },
    {
      "inputs": [],
      "name": "getVendingMachineBalance",
      "outputs": [
        {
          "internalType": "uint256",
          "name": "",
          "type": "uint256"
        }
      ],
      "stateMutability": "view",
      "type": "function",
      "constant": true
    },
    {
      "inputs": [
        {
          "internalType": "uint256",
          "name": "amount",
          "type": "uint256"
        }
      ],
      "name": "restock",
      "outputs": [],
      "stateMutability": "nonpayable",
      "type": "function"
    }
  ],
  "bytecode": "0x608060405234801561001057600080fd5b50336000806101000a81548173ffffffffffffffffffffffffffffffffffffffff021916908373ffffffffffffffffffffffffffffffffffffffff1602179055506101f4600160003073ffffffffffffffffffffffffffffffffffffffff1673ffffffffffffffffffffffffffffffffffffffff1681526020019081526020016000208190555061086f806100a66000396000f3fe60806040526004361061004a5760003560e01c8063124e85731461004f5780638da5cb5b1461008c578063c21a702a146100b7578063e7644d34146100e0578063efef39a11461010b575b600080fd5b34801561005b57600080fd5b506100766004803603810190610071919061047b565b610127565b60405161008391906104c1565b60405180910390f35b34801561009857600080fd5b506100a161013f565b6040516100ae91906104eb565b60405180910390f35b3480156100c357600080fd5b506100de60048036038101906100d99190610532565b610163565b005b3480156100ec57600080fd5b506100f561024a565b60405161010291906104c1565b60405180910390f35b61012560048036038101906101209190610532565b610291565b005b60016020528060005260406000206000915090505481565b60008054906101000a900473ffffffffffffffffffffffffffffffffffffffff1681565b60008054906101000a900473ffffffffffffffffffffffffffffffffffffffff1673ffffffffffffffffffffffffffffffffffffffff163373ffffffffffffffffffffffffffffffffffffffff16146101f1576040517f08c379a00000000000000000000000000000000000000000000000000000000081526004016101e8906105e2565b60405180910390fd5b80600160003073ffffffffffffffffffffffffffffffffffffffff1673ffffffffffffffffffffffffffffffffffffffff16815260200190815260200160002060008282546102409190610631565b9250508190555050565b6000600160003073ffffffffffffffffffffffffffffffffffffffff1673ffffffffffffffffffffffffffffffffffffffff16815260200190815260200160002054905090565b671bc16d674ec80000816102a59190610687565b3410156102e7576040517f08c379a00000000000000000000000000000000000000000000000000000000081526004016102de90610753565b60405180910390fd5b80600160003073ffffffffffffffffffffffffffffffffffffffff1673ffffffffffffffffffffffffffffffffffffffff168152602001908152602001600020541015610369576040517f08c379a0000000000000000000000000000000000000000000000000000000008152600401610360906107e5565b60405180910390fd5b80600160003373ffffffffffffffffffffffffffffffffffffffff1673ffffffffffffffffffffffffffffffffffffffff16815260200190815260200160002060008282546103b89190610631565b9250508190555080600160003073ffffffffffffffffffffffffffffffffffffffff1673ffffffffffffffffffffffffffffffffffffffff168152602001908152602001600020600082825461040e9190610805565b9250508190555050565b600080fd5b600073ffffffffffffffffffffffffffffffffffffffff82169050919050565b60006104488261041d565b9050919050565b6104588161043d565b811461046357600080fd5b50565b6000813590506104758161044f565b92915050565b60006020828403121561049157610490610418565b5b600061049f84828501610466565b91505092915050565b6000819050919050565b6104bb816104a8565b82525050565b60006020820190506104d660008301846104b2565b92915050565b6104e58161043d565b82525050565b600060208201905061050060008301846104dc565b92915050565b61050f816104a8565b811461051a57600080fd5b50565b60008135905061052c81610506565b92915050565b60006020828403121561054857610547610418565b5b60006105568482850161051d565b91505092915050565b600082825260208201905092915050565b7f4f6e6c79206f776e65722063616e20726573746f636b20746869732076656e6460008201527f696e67206d616368696e65212100000000000000000000000000000000000000602082015250565b60006105cc602d8361055f565b91506105d782610570565b604082019050919050565b600060208201905081810360008301526105fb816105bf565b9050919050565b7f4e487b7100000000000000000000000000000000000000000000000000000000600052601160045260246000fd5b600061063c826104a8565b9150610647836104a8565b9250827fffffffffffffffffffffffffffffffffffffffffffffffffffffffffffffffff0382111561067c5761067b610602565b5b828201905092915050565b6000610692826104a8565b915061069d836104a8565b9250817fffffffffffffffffffffffffffffffffffffffffffffffffffffffffffffffff04831182151516156106d6576106d5610602565b5b828202905092915050565b7f596f75206d75737420706179206174206c65617374203220657468657220706560008201527f7220636f6b650000000000000000000000000000000000000000000000000000602082015250565b600061073d60268361055f565b9150610748826106e1565b604082019050919050565b6000602082019050818103600083015261076c81610730565b9050919050565b7f4e6f7420656e6f75676820636f6b6520696e2073746f636b20746f2066756c6660008201527f696c6c2070757263686173652072657175657374000000000000000000000000602082015250565b60006107cf60348361055f565b91506107da82610773565b604082019050919050565b600060208201905081810360008301526107fe816107c2565b9050919050565b6000610810826104a8565b915061081b836104a8565b92508282101561082e5761082d610602565b5b82820390509291505056fea2646970667358221220fb90584c11f018b469ecdd5bb978aa9e2e07c13aa16f5e70c31b4e244d43d15f64736f6c634300080d0033",
  "immutableReferences": {},
  "source": "// contracts/Box.sol\n// SPDX-License-Identifier: MIT\npragma solidity >=0.8.2 <0.9.0;\n\n/*\nWhat is a VendingMachine? What are the functions of this VendingMachine?\nFunctions:\n1. Purchase\n2. Restock\n3. Get balance\nState variables:\n1. owner\n2. balance\n3. amount\n*/\n\n\ncontract VendingMachine {\n    address public owner; // The owner of the contract (coke vending machine)\n    mapping(address => uint) public cokeBalance; // The balance of the vending machine\n\n    constructor() {\n        owner = msg.sender; // The owner of the contract\n        cokeBalance[address(this)] = 500; // The balance of the vending machine\n    }\n\n       function purchase(uint amount) public payable {\n        require(msg.value >= amount * 2 ether, \"You must pay at least 2 ether per coke\");\n        require(cokeBalance[address(this)] >= amount, \"Not enough coke in stock to fulfill purchase request\");\n        cokeBalance[msg.sender] += amount; // buyer's balance\n        cokeBalance[address(this)] -= amount; // owner's balance\n    }\n\n    function getVendingMachineBalance() public view returns(uint) {\n        return cokeBalance[address(this)];\n    }\n\n    function restock(uint amount) public {\n        require(msg.sender == owner, \"Only owner can restock this vending machine!!\");\n        cokeBalance[address(this)] += amount;\n    }\n\n \n\n}",
  "sourcePath": "/Users/hyungkeunkang/smartcontract101/vending_machine/tutorial_truffle/contracts/vending_machine.sol",
  "compiler": {
    "name": "solc",
    "version": "0.8.13+commit.abaa5c0e.Emscripten.clang"
  },
  "schemaVersion": "3.4.16",
  "updatedAt": "2024-11-28T15:40:48.623Z",
  "networkType": "ethereum",
  "devdoc": {
    "kind": "dev",
    "methods": {},
    "version": 1
  },
  "userdoc": {
    "kind": "user",
    "methods": {},
    "version": 1
  }
}