{
  "contractName": "VendingMachine",
  "abi": [
    {
      "inputs": [],
      "stateMutability": "nonpayable",
      "type": "constructor"
    },
    {
      "anonymous": false,
      "inputs": [
        {
          "indexed": true,
          "internalType": "address",
          "name": "purchaser",
          "type": "address"
        },
        {
          "indexed": false,
          "internalType": "uint256",
          "name": "amount",
          "type": "uint256"
        }
      ],
      "name": "Purchase",
      "type": "event"
    },
    {
      "inputs": [
        {
          "internalType": "address",
          "name": "",
          "type": "address"
        }
      ],
      "name": "cokeBalance",
      "outputs": [
        {
          "internalType": "uint256",
          "name": "",
          "type": "uint256"
        }
      ],
      "stateMutability": "view",
      "type": "function",
      "constant": true
    },
    {
      "inputs": [],
      "name": "owner",
      "outputs": [
        {
          "internalType": "address",
          "name": "",
          "type": "address"
        }
      ],
      "stateMutability": "view",
      "type": "function",
      "constant": true
    },
    {
      "inputs": [
        {
          "internalType": "uint256",
          "name": "amount",
          "type": "uint256"
        }
      ],
      "name": "purchase",
      "outputs": [],
      "stateMutability": "payable",
      "type": "function",
      "payable": true
    },
    {
      "inputs": [],
      "name": "getVendingMachineBalance",
      "outputs": [
        {
          "internalType": "uint256",
          "name": "",
          "type": "uint256"
        }
      ],
      "stateMutability": "view",
      "type": "function",
      "constant": true
    },
    {
      "inputs": [
        {
          "internalType": "uint256",
          "name": "amount",
          "type": "uint256"
        }
      ],
      "name": "restock",
      "outputs": [],
      "stateMutability": "nonpayable",
      "type": "function"
    }
  ],
  "bytecode": "0x608060405234801561001057600080fd5b50336000806101000a81548173ffffffffffffffffffffffffffffffffffffffff021916908373ffffffffffffffffffffffffffffffffffffffff1602179055506101f4600160003073ffffffffffffffffffffffffffffffffffffffff1673ffffffffffffffffffffffffffffffffffffffff168152602001908152602001600020819055506108bd806100a66000396000f3fe60806040526004361061004a5760003560e01c8063124e85731461004f5780638da5cb5b1461008c578063c21a702a146100b7578063e7644d34146100e0578063efef39a11461010b575b600080fd5b34801561005b57600080fd5b50610076600480360381019061007191906104c9565b610127565b604051610083919061050f565b60405180910390f35b34801561009857600080fd5b506100a161013f565b6040516100ae9190610539565b60405180910390f35b3480156100c357600080fd5b506100de60048036038101906100d99190610580565b610163565b005b3480156100ec57600080fd5b506100f561024a565b604051610102919061050f565b60405180910390f35b61012560048036038101906101209190610580565b610291565b005b60016020528060005260406000206000915090505481565b60008054906101000a900473ffffffffffffffffffffffffffffffffffffffff1681565b60008054906101000a900473ffffffffffffffffffffffffffffffffffffffff1673ffffffffffffffffffffffffffffffffffffffff163373ffffffffffffffffffffffffffffffffffffffff16146101f1576040517f08c379a00000000000000000000000000000000000000000000000000000000081526004016101e890610630565b60405180910390fd5b80600160003073ffffffffffffffffffffffffffffffffffffffff1673ffffffffffffffffffffffffffffffffffffffff1681526020019081526020016000206000828254610240919061067f565b9250508190555050565b6000600160003073ffffffffffffffffffffffffffffffffffffffff1673ffffffffffffffffffffffffffffffffffffffff16815260200190815260200160002054905090565b671bc16d674ec80000816102a591906106d5565b3410156102e7576040517f08c379a00000000000000000000000000000000000000000000000000000000081526004016102de906107a1565b60405180910390fd5b80600160003073ffffffffffffffffffffffffffffffffffffffff1673ffffffffffffffffffffffffffffffffffffffff168152602001908152602001600020541015610369576040517f08c379a000000000000000000000000000000000000000000000000000000000815260040161036090610833565b60405180910390fd5b80600160003373ffffffffffffffffffffffffffffffffffffffff1673ffffffffffffffffffffffffffffffffffffffff16815260200190815260200160002060008282546103b8919061067f565b9250508190555080600160003073ffffffffffffffffffffffffffffffffffffffff1673ffffffffffffffffffffffffffffffffffffffff168152602001908152602001600020600082825461040e9190610853565b925050819055503373ffffffffffffffffffffffffffffffffffffffff167f2499a5330ab0979cc612135e7883ebc3cd5c9f7a8508f042540c34723348f6328260405161045b919061050f565b60405180910390a250565b600080fd5b600073ffffffffffffffffffffffffffffffffffffffff82169050919050565b60006104968261046b565b9050919050565b6104a68161048b565b81146104b157600080fd5b50565b6000813590506104c38161049d565b92915050565b6000602082840312156104df576104de610466565b5b60006104ed848285016104b4565b91505092915050565b6000819050919050565b610509816104f6565b82525050565b60006020820190506105246000830184610500565b92915050565b6105338161048b565b82525050565b600060208201905061054e600083018461052a565b92915050565b61055d816104f6565b811461056857600080fd5b50565b60008135905061057a81610554565b92915050565b60006020828403121561059657610595610466565b5b60006105a48482850161056b565b91505092915050565b600082825260208201905092915050565b7f4f6e6c79206f776e65722063616e20726573746f636b20746869732076656e6460008201527f696e67206d616368696e65212100000000000000000000000000000000000000602082015250565b600061061a602d836105ad565b9150610625826105be565b604082019050919050565b600060208201905081810360008301526106498161060d565b9050919050565b7f4e487b7100000000000000000000000000000000000000000000000000000000600052601160045260246000fd5b600061068a826104f6565b9150610695836104f6565b9250827fffffffffffffffffffffffffffffffffffffffffffffffffffffffffffffffff038211156106ca576106c9610650565b5b828201905092915050565b60006106e0826104f6565b91506106eb836104f6565b9250817fffffffffffffffffffffffffffffffffffffffffffffffffffffffffffffffff048311821515161561072457610723610650565b5b828202905092915050565b7f596f75206d75737420706179206174206c65617374203220657468657220706560008201527f7220636f6b650000000000000000000000000000000000000000000000000000602082015250565b600061078b6026836105ad565b91506107968261072f565b604082019050919050565b600060208201905081810360008301526107ba8161077e565b9050919050565b7f4e6f7420656e6f75676820636f6b6520696e2073746f636b20746f2066756c6660008201527f696c6c2070757263686173652072657175657374000000000000000000000000602082015250565b600061081d6034836105ad565b9150610828826107c1565b604082019050919050565b6000602082019050818103600083015261084c81610810565b9050919050565b600061085e826104f6565b9150610869836104f6565b92508282101561087c5761087b610650565b5b82820390509291505056fea2646970667358221220c218854710ff2f5eba2077006168a72ba37a8f64bae417c61720e60fb650668864736f6c634300080d0033",
  "immutableReferences": {},
  "source": "// contracts/Box.sol\n// SPDX-License-Identifier: MIT\npragma solidity >=0.8.2 <0.9.0;\n\n/*\nWhat is a VendingMachine? What are the functions of this VendingMachine?\nFunctions:\n1. Purchase\n2. Restock\n3. Get balance\nState variables:\n1. owner\n2. balance\n3. amount\n*/\n\n\ncontract VendingMachine {\n    event Purchase (address indexed purchaser, uint256 amount);\n\n    address public owner; // The owner of the contract (coke vending machine)\n    mapping(address => uint) public cokeBalance; // The balance of the vending machine\n\n    constructor() {\n        owner = msg.sender; // The owner of the contract\n        cokeBalance[address(this)] = 500; // The balance of the vending machine\n    }\n\n       function purchase(uint amount) public payable {\n        require(msg.value >= amount * 2 ether, \"You must pay at least 2 ether per coke\");\n        require(cokeBalance[address(this)] >= amount, \"Not enough coke in stock to fulfill purchase request\");\n        cokeBalance[msg.sender] += amount; // buyer's balance\n        cokeBalance[address(this)] -= amount; // owner's balance\n        emit Purchase(msg.sender, amount);\n    }\n\n    function getVendingMachineBalance() public view returns(uint) {\n        return cokeBalance[address(this)];\n    }\n\n    function restock(uint amount) public {\n        require(msg.sender == owner, \"Only owner can restock this vending machine!!\");\n        cokeBalance[address(this)] += amount;\n    \n    }\n\n \n\n}",
  "sourcePath": "/Users/hyungkeunkang/blockchain-ecology/vending_machine/tutorial_truffle/contracts/vending_machine.sol",
  "compiler": {
    "name": "solc",
    "version": "0.8.13+commit.abaa5c0e.Emscripten.clang"
  },
  "schemaVersion": "3.4.16",
  "updatedAt": "2024-11-29T12:09:25.635Z",
  "networkType": "ethereum",
  "devdoc": {
    "kind": "dev",
    "methods": {},
    "version": 1
  },
  "userdoc": {
    "kind": "user",
    "methods": {},
    "version": 1
  }
}